:100000000C94A8000C94D0000C94D0000C94D00058
:100010000C94D0000C94D0000C94D0000C94D00020
:100020000C94D0000C94D0000C94D0000C94D00010
:100030000C94D0000C94D0000C94D0000C94D00000
:100040000C944E1A0C94471E0C94610C0C94990C51
:100050000C94D0000C94D0000C94D0000C94D000E0
:100060000C94D0000C94D000036EDB363D9A999925
:10007000993DABAAAA2A3E000000803F084AD73B20
:100080003BCE016E84BCBFFDC12F3D6C74319ABD67
:1000900056833DDA3D00C77F11BED9E4BB4C3E918B
:1000A0006BAAAABE000000803F072C7AA5BA6CC5D7
:1000B00090DA3B9365FC8BBC53F810FD3C56928361
:1000C0004DBD879D3AB63DCBC9BF5BBE73DA0FC944
:1000D0003F05A84CCDB2D44EB93836A9020C50B960
:1000E000918688083CA6AAAA2ABE000000803F008C
:1000F000000000240027002A00000000002500283E
:10010000002B000000000023002600290004040446
:1001100004040404040202020202020303030303B0
:10012000030102040810204080010204081020018D
:100130000204081020000000070002010000030470
:1001400006000000000000000000A90B740E461D10
:1001500011241FBECFEFD8E0DEBFCDBF11E0A0E07D
:10016000B1E0EEE3FEE502C005900D92A43EB107BA
:10017000D9F714E0A4EEB1E001C01D92A539B10792
:10018000E1F711E0C0E5D1E004C02297FE010E9432
:10019000752BCA34D107C9F70E94291A0C941D2F58
:1001A0000C94000020E836E948E15BE40E94632AF1
:1001B0000E94EB2808950F931F93CF93DF93C1EA1A
:1001C000D3E0CE0160E071E00E944E0FCE0162E00C
:1001D00071E00E944E0F60917202709173028091E3
:1001E00074029091750221EE3EE245E652E40E94CF
:1001F000632AAB01BC01CE0122E030E00E94011273
:1002000007E011E0CE01B8010E944E0F6091760226
:1002100070917702809178029091790221EE3EE20E
:1002200045E652E40E94632AAB01BC01CE0122E004
:1002300030E00E940112CE01B8010E944E0F609181
:100240007A0270917B0280917C0290917D0221EE76
:100250003EE245E652E40E94632AAB01BC01CE01B6
:1002600022E030E00E940112CE010E94640FDF9173
:10027000CF911F910F9108952F923F924F925F92CD
:100280006F927F928F929F92AF92BF92CF92DF92A6
:10029000EF92FF920F931F93DF93CF93CDB7DEB70B
:1002A0002E970FB6F894DEBF0FBECDBF6D877E8749
:1002B000C42ED52EE82EF92E94E2292E312C2C0CAA
:1002C0003D1C50C0F80121913191419151918F0114
:1002D000F70160817181828193810E94632A4B01C1
:1002E0005C0169837A838B839C83F70164817581C8
:1002F00086819781F80120853185428553850E944A
:10030000632A9B01AC016D837E838F839887C5012F
:10031000B4010E949F274B015C01F7016085718544
:1003200082859385F80124893589468957890E94F9
:10033000632A9B01AC01C501B4010E949F27F30110
:1003400061937193819391933F010415150509F011
:10035000B9CF8CE090E0C80ED91EE80EF91EC21489
:10036000D30459F09D858E85092F182F8CE0482ED7
:10037000512C400E511E3601A5CF2E960FB6F89483
:10038000DEBF0FBECDBFCF91DF911F910F91FF90C8
:10039000EF90DF90CF90BF90AF909F908F907F9025
:1003A0006F905F904F903F902F90089587E194E079
:1003B0000E94DE1C0895CF93DF93CDEBD2E0CE01F7
:1003C00060E042E00E94D121CE0160E24FE00E9455
:1003D000A71FCE0163E240E20E94A71FDF91CF91E9
:1003E00008950F931F93CF93DF938DEB92E00E94BC
:1003F000FB1F6091BD027091BE028091BF0290917F
:10040000C0020E94EB28EB017093F1016093F001B0
:100410006091C1027091C2028091C3029091C402A6
:100420000E94EB288B017093F3016093F2016091BD
:10043000C5027091C6028091C7029091C8020E94C5
:10044000EB289B017093F5016093F4018091FC010E
:100450009091FD01C81BD90B40913D0150913E0187
:10046000C49FC001C59F900DD49F900D11249093FF
:100470000902809308028091FE019091FF01081B00
:10048000190B40913F0150914001049FC001059F0D
:10049000900D149F900D112490930B0280930A02EB
:1004A0008091000290910102281B390B409141017B
:1004B00050914201249FC001259F900D349F900DC3
:1004C000112490930D0280930C02DF91CF911F9124
:1004D0000F9108958BEC92E063E042E00E94702758
:1004E0008091FC02823089F48BEC92E060E247E478
:1004F0000E943D228BEC92E063E248E00E943D22A4
:100500008BEC92E063E240E20AC08BEC92E060E2A6
:1005100047E20E943D228BEC92E063E240E30E94BE
:100520003D2208950F931F93CF93DF938BEC92E0BE
:100530000E944D236091CB027091CC028091CD023C
:100540009091CE020E94EB28EB017093F70160932B
:10055000F6016091CF027091D0028091D10290910A
:10056000D2020E94EB288B017093F9016093F8018D
:100570006091D3027091D4028091D5029091D602FD
:100580000E94EB289B017093FB016093FA0180911C
:10059000020290910302C81BD90B40914301509174
:1005A0004401C49FC001C59F900DD49F900D11249C
:1005B00090930F0280930E028091040290910502A5
:1005C000081B190B4091450150914601049FC00141
:1005D000059F900D149F900D11249093110280930C
:1005E00010028091060290910702281B390B40915E
:1005F000470150914801249FC001259F900D349FD1
:10060000900D11249093130280931202DF91CF91E9
:100610001F910F9108958BEC92E062E040E00E9400
:10062000922208950F931F93CF93DF9381EA93E073
:1006300040E052EC61E070E00E94180D8DE061E056
:100640000E94631B0E94D60181EA93E069E071E099
:100650000E949F0F8DE060E00E94A81B6CED75E08A
:1006600080E090E00E94CA1A0E946A020E940B0376
:100670000E94DB0164E170E080E090E00E94CA1A11
:1006800000E210E00E94F1010E949202A0EFB1E0AE
:10069000CCEFD1E0FE012D913D9180819181820FBF
:1006A000931F8193919381E0AC3FB807A1F764E178
:1006B00070E080E090E00E94CA1A0150104011F7EB
:1006C000ECEFF1E020E230E080819181B9010E94FD
:1006D0002A2B6193719382E0E830F807A9F74091E3
:1006E00047015091480120E03FEF429FC001439FE6
:1006F000900D529F900D1124209106023091070217
:10070000820F931F9093070280930602699179915B
:1007100081EA93E04AE050E00E94EA1082E0C830AB
:10072000D807A1F760ED77E080E090E00E94CA1A58
:100730008DE061E00E94A81B0E94961A6093E4017C
:100740007093E5018093E6019093E70164E170E026
:1007500080E090E00E94CA1A1092970210929602CE
:10076000DF91CF911F910F9108958BEC92E00E9441
:10077000EE236091490170914A01882777FD8095A9
:10078000982F0E941E292091D7023091D8024091C3
:10079000D9025091DA020E94632A0E94EB287093DA
:1007A00015026093140260914B0170914C018827EF
:1007B00077FD8095982F0E941E292091DB023091B1
:1007C000DC024091DD025091DE020E94632A0E9409
:1007D000EB28709317026093160260914D0170919F
:1007E0004E01882777FD8095982F0E941E29209121
:1007F000DF023091E0024091E1025091E2020E945A
:10080000632A0E94EB2870931902609318020895DE
:10081000AF92BF92CF92DF92EF92FF920F931F930E
:10082000CF93DF93C82ED92EA62EB72EC3E0D0E0EB
:1008300010E000E0FF24EE24F601619171918191B6
:1008400091916F01F50121913191419151915F0198
:100850000E94632A9B01AC01D801F7016B2F702F16
:100860008F2F9E2D0E949F27162F072FF82EE92EDF
:10087000219711F7A8019701652F742F832F922FCD
:10088000DF91CF911F910F91FF90EF90DF90CF906C
:10089000BF90AF900895AF92BF92CF92DF92EF9248
:1008A000FF920F931F93CF93DF937C01EB018A019B
:1008B0006C817D818E819F81FA0120853185428501
:1008C00053850E94632A5B016C01688579858A855E
:1008D0009B85F80124813581468157810E94632AD6
:1008E0009B01AC01C601B5010E949E27F701608300
:1008F000718382839383688579858A859B85F801D6
:1009000020813181428153810E94632A5B016C0105
:10091000688179818A819B81F801208531854285B2
:1009200053850E94632A9B01AC01C601B5010E9458
:100930009E27F70164837583868397836881798115
:100940008A819B81F80124813581468157810E94EB
:10095000632A5B016C016C817D818E819F81F8012E
:1009600020813181428153810E94632A9B01AC0125
:10097000C601B5010E949E27F701608771878287B3
:100980009387DF91CF911F910F91FF90EF90DF90B0
:10099000CF90BF90AF900895CF92DF92EF92FF92E9
:1009A0000F931F93CF93DF936C01EB0179018A01C1
:1009B000688179818A819B810E94632AF601608324
:1009C0007183828393836C817D818E819F81A80155
:1009D00097010E94632AF601648375838683978357
:1009E000688579858A859B85A80197010E94632A7D
:1009F000F6016087718782879387DF91CF911F917E
:100A00000F91FF90EF90DF90CF900895CF92DF92FB
:100A1000EF92FF920F931F93CF93DF93062F172F21
:100A2000E42EF52EC82ED92EC0E0D0E0F801619159
:100A30007191819191918F01F701219131914191B2
:100A400051917F010E949F27F601619371938193D9
:100A500091936F012196C330D10541F7DF91CF917A
:100A60001F910F91FF90EF90DF90CF9008956F92BC
:100A70007F928F929F92AF92BF92CF92DF92EF922E
:100A8000FF920F931F93DF93CF93CDB7DEB7A49759
:100A90000FB6F894DEBF0FBECDBF53E5C52E51E0B3
:100AA000D52E4CE0642E712C6C0C7D1CC601B3015C
:100AB0000E940804905820E030E040E05FE30E948C
:100AC000632A5B01982E892E8E010F5F1F4FC8018C
:100AD000B301F4012A2D3B2D4F2F5E2F0E94CC0431
:100AE0003DE0E32EF12CEC0EFD1EC701B601F40132
:100AF0002A2D3B2D4F2F5E2F0E94CC04C801B80138
:100B0000A6010E940605C701B701A3010E940605C0
:100B100029E1A22EB12CAC0EBD1EC501B801A70162
:100B20000E944B04C801B8010E9408049B01AC015B
:100B300060E070E080E490E40E949E2720E030E0D6
:100B400040E05FE30E94632A9B01AC01C601B8014B
:100B50000E94CC04C701B7010E9408049B01AC01AC
:100B600060E070E080E490E40E949E2720E030E0A6
:100B700040E05FE30E94632A9B01AC01C301B7011F
:100B80000E94CC04C501B5010E9408049B01AC0180
:100B900060E070E080E490E40E949E2720E030E076
:100BA00040E05FE30E94632A9B01AC018BE691E089
:100BB000B5010E94CC04A4960FB6F894DEBF0FBE18
:100BC000CDBFCF91DF911F910F91FF90EF90DF90FC
:100BD000CF90BF90AF909F908F907F906F9008952F
:100BE0006F927F928F929F92AF92BF92CF92DF923D
:100BF000EF92FF920F931F9320912A0230912B02C4
:100C000040912C0250912D02E0902E02F0902F0284
:100C10000091300210913102A0903202B090330264
:100C2000C0903402D0903502CA01B9010E94632AF3
:100C30003B014C01C801B701A80197010E94632A3A
:100C40009B01AC01C401B3010E949F277B018C0171
:100C5000C601B501A60195010E94632A9B01AC0162
:100C6000C801B7010E949F270E94D02A20E030E0EF
:100C700040E85BE30E94632A9B01AC0160E070E006
:100C800080E89FE30E949E27F62E072F182FE92E5B
:100C900020E030E0A9010E94582A1816D4F46F2DE4
:100CA000702F812F9E2D2F2D302F412F5E2D0E94D2
:100CB0009F279B01AC0160E070E080E89FE30E9409
:100CC0009E2720E030E0A9010E947C2887FF19C000
:100CD00075C06F2D702F812F9E2D2F2D302F412FFE
:100CE0005E2D0E949F2720E030E040E85FE30E94F5
:100CF0009F2720E030E0A9010E947C2887FF1DC0CB
:100D00005DC06F2D702F812F9E2D2F2D302F412FE5
:100D10005E2D0E949F279B01AC0160E070E080E89F
:100D20009FE30E949E2720E030E040E85FE30E94BE
:100D3000582A18160CF447C019C06F2D702F812F38
:100D40009E2D2F2D302F412F5E2D0E949F2720E0BA
:100D500030E040E85FE30E949F2720E030E040E879
:100D60005FE30E94582A181674F113C06F2D702F7C
:100D7000812F9E2D2F2D302F412F5E2D0E949F27DA
:100D80009B01AC0160E070E080E89FE30E949E2739
:100D900010C06F2D702F812F9E2D2F2D302F412FA2
:100DA0005E2D0E949F2720E030E040E85FE30E9434
:100DB0009F27F62E072F182FE92E0AC0FF2400E0E8
:100DC00010E0EE2405C0FF2400E010E86FE3E62EFB
:100DD0008EE792E06AE272E04BE651E00E944B043B
:100DE0006F2D702F812F9E2D2AE037ED43EA5CE3B3
:100DF0000E94632A9B01AC018EE492E06EE772E0F0
:100E00000E94CC046F2D702F812F9E2D2CEA35EC83
:100E100047EA57E30E94632A9B01AC0181E093E01B
:100E20006EE772E00E94CC048AE592E0BC0141E0EA
:100E300053E00E940605E0902602F0902702009100
:100E4000280210912902C801B7010E9480285B0185
:100E50006C01C801B7010E94C62A2091530130914C
:100E6000540140915501509156010E94632A7B0123
:100E70008C01C601B50120915F0130916001409164
:100E80006101509162010E94632A9B01AC01C8017B
:100E9000B7010E949E279B01AC018AE892E06BE6B5
:100EA00071E00E94CC048DE093E06AE872E02AE9E8
:100EB00039E949E95FE30E94CC048EE492E0BC0189
:100EC0004DE053E00E94060581E093E06AE872E09D
:100ED0002CEA35EC47EA57E30E94CC048AE592E01D
:100EE000BC0141E053E00E9406051F910F91FF9065
:100EF000EF90DF90CF90BF90AF909F908F907F90BA
:100F00006F9008952F923F924F925F926F927F92CF
:100F10008F929F92AF92BF92CF92DF92EF92FF9209
:100F20000F931F93DF93CF9300D000D0CDB7DEB7E0
:100F30006091080270910902882777FD8095982FAB
:100F40000E941E2929E732E240EA5AE30E94632AFE
:100F5000609336027093370280933802909339027F
:100F600060910A0270910B02882777FD8095982F77
:100F70000E941E2929E732E240EA5AE30E94632ACE
:100F800060933A0270933B0280933C0290933D023F
:100F900060910C0270910D02882777FD8095982F43
:100FA0000E941E2929E732E240EA5AE30E94632A9E
:100FB00060933E0270933F028093400290934102FF
:100FC00060910E0270910F02882777FD8095982F0F
:100FD0000E941E2960932A0270932B0280932C0298
:100FE00090932D026091100270911102882777FD75
:100FF0008095982F0E941E2960932E0270932F02D5
:10100000809330029093310260911202709113022A
:10101000882777FD8095982F0E941E2960933202C1
:1010200070933302809334029093350286E692E007
:1010300066E372E04AE552E00E94060582E492E02F
:1010400066E672E04EE452E00E9406050F2EF0E0E4
:101050002F2EF0E03F2EF0E04F2EF0E05F2EF02D2F
:1010600020927701309278014092790150927A0172
:10107000E0904F01F0905001009151011091520108
:1010800057016801D7FAD094D7F8D09460904A02FB
:1010900070904B0280904C0290904D02C601B501B9
:1010A000A40193010E94632A60937B0170937C01E9
:1010B00080937D0190937E0180914602909147023A
:1010C000A0914802B091490289839A83AB83BC8383
:1010D000C801B70129813A814B815C810E94632A52
:1010E00060937F01709380018093810190938201CE
:1010F000C801B701A40193010E94632A6093830190
:1011000070938401809385019093860120928701DA
:10111000309288014092890150928A016090420287
:10112000709043028090440290904502C601B50140
:10113000A40193010E94632A60938B0170938C0138
:1011400080938D0190938E01C601B50129813A816A
:101150004B815C810E94632A60938F0170939001A0
:101160008093910190939201C801B701A40193016A
:101170000E94632A60939301709394018093950178
:101180009093960120929701309298014092990194
:1011900050929A0183E591E067E771E049E952E0F6
:1011A0000E943C0173E5E72E71E0F72E09E912E099
:1011B000D7016D917D918D919C91F80120813181B4
:1011C000428153810E949F27D7016D937D938D9318
:1011D0009C93139714966D917D918D919C91179787
:1011E000F80124813581468157810E949F27D701CC
:1011F00014966D937D938D939C93179718966D918C
:101200007D918D919C911B97F801208531854285B8
:1012100053850E949F27D70118966D937D938D93D8
:101220009C931B97ECE0F0E0EE0EFF1E045F1F4F57
:10123000F7E7EF16F1E0FF0609F0BACF0F900F9035
:101240000F900F90CF91DF911F910F91FF90EF9032
:10125000DF90CF90BF90AF909F908F907F906F90D6
:101260005F904F903F902F90089560916B01709127
:101270006C0180916D0190916E010E94032890583D
:10128000609376027093770280937802909379024C
:1012900060916F0170917001809171019091720164
:1012A0002091730130917401409175015091760144
:1012B0000E942928609372027093730280937402D3
:1012C0009093750260915F0170916001809161015E
:1012D0009091620120915301309154014091550148
:1012E000509156010E94292860937A0270937B02E4
:1012F00080937C0290937D0208952F923F924F92AB
:101300005F926F927F928F929F92AF92BF92CF9295
:10131000DF92EF92FF920F931F93DF93CF93CDB79E
:10132000DEB764970FB6F894DEBF0FBECDBFE09076
:101330007202F09073020091740210917502C8015C
:10134000B7010E94802869837A838B839C83C801BC
:10135000B7010E94C62A6D837E838F839887E090B1
:101360007602F09077020091780210917902C8011C
:10137000B7010E9480286D877E878F87988BC80170
:10138000B7010E94C62A69877A878B879C87E0907D
:101390004901F0904A0180E392E0E89EB001E99EA5
:1013A000700DF89E700D1124809114029091150219
:1013B000680F791F882777FD8095982F0E941E2936
:1013C00020E030EC49E654E40E9483285B016C0184
:1013D000B701882777FD8095982F0E941E2920E06D
:1013E00030E040E05FE30E94632A9B01AC01C6014C
:1013F000B5010E949E27562E472E382E292EA20177
:101400009101852F942FA32FB22F80931A029093CE
:101410001B02A0931C02B0931D02E0904B01F090C0
:101420004C018DE792E0E89EB001E99E700DF89EB8
:10143000700D11248091160290911702680F791F88
:10144000882777FD8095982F0E941E2920E030E89C
:1014500041E754E40E9483285B016C01B7018827AF
:1014600077FD8095982F0E941E2920E030E040E013
:101470005FE30E94632A9B01AC01C601B5010E9493
:101480009E27D62EC72EB82EA92EA6019501852FF0
:10149000942FA32FB22F80931E0290931F02A0932C
:1014A0002002B0932102E0904D01F0904E0182E4C1
:1014B00092E0E89EB001E99E700DF89E700D112437
:1014C0008091180290911902680F791F882777FD83
:1014D0008095982F0E941E2920E030EC49E654E4C4
:1014E0000E9483283B014C01B701882777FD809536
:1014F000982F0E941E2920E030E040E05FE30E9428
:10150000632A9B01AC01C401B3010E949E278B0199
:101510007C01862F912FAE2DBF2D809322029093B8
:101520002302A0932402B0932502A6019501652F02
:10153000742F832F922F29813A814B815C810E94E5
:10154000632A3B014C01602F712F8E2D9F2D2D8121
:101550003E814F8158850E94632A9B01AC01C401E2
:10156000B3010E949E279B01AC015058298B3A8BF6
:101570004B8B5C8BA2019101652F742F832F922FCF
:101580002D853E854F8558890E94632A3B014C0179
:10159000A6019501652F742F832F922F2D813E81F7
:1015A0004F8158850E94632A29853A854B855C8541
:1015B0000E94632A9B01AC01C401B3010E949F27D2
:1015C0005B016C01602F712F8E2D9F2D29813A8137
:1015D0004B815C810E94632A29853A854B855C8515
:1015E0000E94632A9B01AC01C601B5010E949F279E
:1015F0009B01AC0169897A898B899C890E94292881
:101600006093260270932702809328029093290208
:1016100064960FB6F894DEBF0FBECDBFCF91DF91B9
:101620001F910F91FF90EF90DF90CF90BF90AF9000
:101630009F908F907F906F905F904F903F902F90F2
:101640000895EF92FF920F931F930E94961A209194
:10165000E4013091E5014091E6015091E701621B00
:10166000730B840B950B643171058105910508F4AA
:101670006BC0809196029091970201969093970289
:10168000809396022093E8013093E9014093EA01A8
:101690005093EB010E94961A9B01AC012093E40148
:1016A0003093E5014093E6015093E7018091E80112
:1016B0009091E901A091EA01B091EB0182179307A3
:1016C000A407B507CCF479018A01E81AF90A0A0BD4
:1016D0001B0BC801B7010E941E2920E030E04AE739
:1016E00054E40E94832860934F01709350018093CB
:1016F0005101909352010BC080E090E0DC01809397
:101700004F0190935001A0935101B09352010E9458
:10171000F1010E9492028091960290919702863088
:10172000910540F010929702109296020E94B50324
:101730000E947D090E9482070E9437050E94F005E1
:101740000E9435090E94DB001F910F91FF90EF90DE
:1017500008958BEC92E00E94F9210895FC018485A4
:101760009585FC01E05CFF4F208131818E5B9F4FAE
:10177000FC0180819181281B390B2F733070C901C6
:101780000895FC0184859585FC01E05CFF4F408154
:101790005181FC01EE5BFF4F2081318142175307DD
:1017A00041F00190F081E02DE80FF91F208130E039
:1017B00002C02FEF3FEFC9010895FC018485958594
:1017C000FC01E05CFF4F40815181FC01EE5BFF4F6B
:1017D000208131814217530771F0A081B181A80F98
:1017E000B91F2C918081918101968F7390709183A4
:1017F000808330E002C02FEF3FEFC9010895FC0164
:1018000081A1882329F0A489B5898C9186FFFBCF1B
:1018100011A20895FC0126853785D901A05CBF4F30
:101820008D919C9101968F739070D901AE5BBF4FE3
:101830004D915C91119784179507D1F3D901A05C64
:10184000BF4F0D90BC91A02DA20FB31F6C93A68526
:10185000B785A05CBF4F11969C938E93A689B789DC
:101860002C9181E090E0078C02C0880F991F0A94A8
:10187000E2F7282B2C9381E081A30488F589E02DE1
:1018800080818064808381E090E00895FB01E05CCA
:10189000FF4F208131812F5F3F4F2F733070DB016D
:1018A000AE5BBF4F4D915C9111972417350739F00E
:1018B000A081B181A60FB71F8C9331832083089537
:1018C00008951F920F920FB60F9211242F933F93FA
:1018D0004F935F936F937F938F939F93AF93BF9338
:1018E000EF93FF938091C00082FD07C08091C600F6
:1018F00069E173E00E94460C02C08091C600FF912E
:10190000EF91BF91AF919F918F917F916F915F9177
:101910004F913F912F910F900FBE0F901F901895F0
:1019200081EA93E00E94AE0B009711F00E94600CD8
:1019300008951F920F920FB60F9211242F933F9389
:101940008F939F93EF93FF9320919D0330919E037C
:1019500080919F039091A0032817390731F480915B
:10196000C1008F7D8093C10014C0E0919F03F0916E
:10197000A003E35AFC4F208180919F039091A00324
:1019800001968F7390709093A00380939F03209390
:10199000C600FF91EF919F918F913F912F910F90F2
:1019A0000FBE0F901F9018958F929F92AF92BF928B
:1019B000CF92DF92EF92FF920F931F93DF93CF931B
:1019C000CDB7DEB7FC011382128288EE93E0A0E06F
:1019D000B0E084839583A683B7838FE991E09183F8
:1019E00080837587648757874687318B208B138B5D
:1019F000028BF58AE48AD78AC68AB18EA08E938E2E
:101A0000828E8F85848F8889858F8989868F8A8940
:101A1000878F8B8980A3CF91DF911F910F91FF90CA
:101A2000EF90DF90CF90BF90AF909F908F900895F0
:101A3000DF92EF92FF920F931F93CF93DF93EC010E
:101A40007A018B01DD24D394403081EE580780E089
:101A5000680780E0780749F4DD24EC89FD8910826D
:101A600060E874E88EE190E00FC0EC89FD8981E0C8
:101A700090E008A002C0880F991F0A94E2F78083C3
:101A800060E079E08DE390E0A80197010E943D2B92
:101A90002150304040405040569547953795279506
:101AA00080E12030380710F0DD20B1F6E889F989AF
:101AB0003083EA89FB89208319A2EE89FF8940815E
:101AC00081E090E09C010C8C02C0220F331F0A942D
:101AD000E2F7422B4083EE89FF8940819C010D8C07
:101AE00002C0220F331F0A94E2F7422B4083EE8993
:101AF000FF8940819C010E8C02C0220F331F0A9483
:101B0000E2F7422B4083EE89FF8920810F8C02C0CF
:101B1000880F991F0A94E2F7809582238083DF91D2
:101B2000CF911F910F91FF90EF90DF900895CF928A
:101B3000DF92EF92FF920F931F93CF93DF93EC010D
:101B40007A018B01C22EDD24D394403081EE5807F8
:101B500080E0680780E0780749F4DD24EC89FD899E
:101B6000108260E874E88EE190E00FC0EC89FD8996
:101B700081E090E008A002C0880F991F0A94E2F764
:101B8000808360E079E08DE390E0A80197010E94F6
:101B90003D2B215030404040504056954795379559
:101BA000279580E12030380710F0DD20B1F6E88974
:101BB000F9893083EA89FB892083E88DF98DC08219
:101BC000EE89FF89408181E090E09C010C8C02C08D
:101BD000220F331F0A94E2F7422B4083EE89FF89DC
:101BE00040819C010D8C02C0220F331F0A94E2F742
:101BF000422B4083EE89FF8940819C010E8C02C0FC
:101C0000220F331F0A94E2F7422B4083EE89FF89AB
:101C100020810F8C02C0880F991F0A94E2F78095EB
:101C200082238083DF91CF911F910F91FF90EF90DE
:101C3000DF90CF900895CF93DF93FC018685978541
:101C4000DC01A05CBF4F8E5B9F4F4D915C91119763
:101C5000EC012881398142175307B9F7A689B78962
:101C60004C9181E090E09C01048C02C0220F331F54
:101C70000A94E2F7209524232C93A689B7894C91E6
:101C80009C01058C02C0220F331F0A94E2F72095B5
:101C900024232C93A689B7894C919C01068C02C001
:101CA000220F331F0A94E2F7209524232C93A68950
:101CB000B7892C91078C02C0880F991F0A94E2F70C
:101CC000809582238C9384859585FC01EE5BFF4F84
:101CD00020813181805C9F4FFC0131832083DF9123
:101CE000CF91089581E008951092A4031092A30368
:101CF00088EE93E0A0E0B0E08093A5039093A60364
:101D0000A093A703B093A803E3EAF3E08FE991E07F
:101D10009293829389E193E0958784878DE593E0A0
:101D20009787868785EC90E0918B808B84EC90E0A0
:101D3000938B828B80EC90E0958B848B81EC90E090
:101D4000978B868B82EC90E0918F808F86EC90E071
:101D5000938F828F84E0848F83E0858F87E0868FE6
:101D600085E0878F81E080A30895CF92DF92EF9284
:101D7000FF920F931F93CF93DF936C017B018A0136
:101D8000C0E0D0E00FC0D7016D917D01D601ED918B
:101D9000FC910190F081E02DC6010995C80FD91F73
:101DA000015010400115110571F7CE01DF91CF915F
:101DB0001F910F91FF90EF90DF90CF9008956115E4
:101DC000710591F0DB010D900020E9F7AD01415064
:101DD0005040461B570BDC01ED91FC910280F381D2
:101DE000E02D09959C0102C020E030E0C901089572
:101DF000EF92FF920F931F93CF93DF937C01062FF7
:101E0000172FC0E0D0E0F8010F5F1F4F64916623E9
:101E100051F0F701A081B181ED91FC91C7010995C5
:101E2000C80FD91FF0CFCE01DF91CF911F910F9135
:101E3000FF90EF900895AF92BF92CF92DF92EF9212
:101E4000FF920F931F93CF93DF937C016B01C0E050
:101E5000D0E000E010E010C0D701ED91FC91A0802F
:101E6000B180C601BE010E94FB16682FC701F501B3
:101E70000995080F191F2196F60184819581C817CD
:101E8000D90750F3C801DF91CF911F910F91FF90B7
:101E9000EF90DF90CF90BF90AF9008950E94DF0E3B
:101EA0000895DC01ED91FC910190F081E02D099500
:101EB00008959C01CB01DB01ED91FC910190F08133
:101EC000E02DB901099508950F931F93CF93DF93E8
:101ED000EC016DE00E94510F8C01CE016AE00E947E
:101EE000510F080F191FC801DF91CF911F910F915A
:101EF00008950F931F93CF93DF93EC010E94F80E88
:101F00008C01CE010E94640F080F191FC801DF91D8
:101F1000CF911F910F9108950F931F93CF93DF934C
:101F2000EC010E941B0F8C01CE010E94640F080F70
:101F3000191FC801DF91CF911F910F9108950F9341
:101F40001F93CF93DF93EC010E94DF0E8C01CE0133
:101F50000E94640F080F191FC801DF91CF911F91D4
:101F60000F9108950F931F93CF93DF93EC010E947D
:101F7000510F8C01CE010E94640F080F191FC80178
:101F8000DF91CF911F910F9108950F931F93CF93DE
:101F9000DF93EC010E94590F8C01CE010E94640F67
:101FA000080F191FC801DF91CF911F910F9108955C
:101FB0008F929F92AF92BF92CF92DF92EF92FF9259
:101FC0000F931F93DF93CF93CDB7DEB7A1970FB6D3
:101FD000F894DEBF0FBECDBF6C01042FE52FCB01FF
:101FE000122F19A2223008F41AE021E2E22EF12C7D
:101FF000EC0EFD1E812E9924AA24BB2403C0022FBF
:10200000E32FCA01602F7E2FA50194010E943D2B72
:10201000129F802D1124081B0894E108F1080A3052
:1020200014F4005D01C0095CF7010083211531053E
:102030004105510521F7C601B7010E94DF0EA196A7
:102040000FB6F894DEBF0FBECDBFCF91DF911F91C9
:102050000F91FF90EF90DF90CF90BF90AF909F9047
:102060008F9008952115310549F4DC01ED91FC9123
:102070000190F081E02D642F099508950E94D80FFA
:1020800008950F931F93CF93DF93EC010E943210BA
:102090008C01CE010E94640F080F191FC801DF9147
:1020A000CF911F910F9108959A01AB0160E070E00C
:1020B0000E94321008950F931F93CF93DF93EC018A
:1020C0009A01AB0160E070E00E9432108C01CE01F9
:1020D0000E94640F080F191FC801DF91CF911F9153
:1020E0000F9108959A01462F50E060E070E00E9441
:1020F000321008950F931F93CF93DF93EC019A0151
:10210000462F50E060E070E00E9432108C01CE015A
:102110000E94640F080F191FC801DF91CF911F9112
:102120000F910895CF92DF92EF92FF920F931F933A
:10213000CF93DF93EC017A018B012115310541F436
:10214000E881F9810190F081E02D642F09951AC092
:102150002A303105A9F477FF12C06DE20E94510FB9
:102160006C0144275527BA014E195F09600B710BAA
:10217000CE012AE00E94D80FC80ED91E04C02AE062
:102180000E94D80F6C01C601DF91CF911F910F9172
:10219000FF90EF90DF90CF9008950F931F93CF9310
:1021A000DF93EC010E9492108C01CE010E94640F1B
:1021B000080F191FC801DF91CF911F910F9108954A
:1021C0009A01FB01AF01662757FD6095762F0E94AB
:1021D000921008950F931F93CF93DF93EC019A0110
:1021E000CB01AC01662757FD6095762FCE010E948A
:1021F00092108C01CE010E94640F080F191FC801B4
:10220000DF91CF911F910F9108956F927F928F92DE
:102210009F92AF92BF92CF92DF92EF92FF920F9375
:102220001F93CF93DF93EC015A016B01822ECB01F8
:10223000BA01A60195010E94112B882321F0CE013D
:1022400068E271E01BC086017501E89417F9C801C6
:10225000B7012FEF3FEF4FE75FE70E94112B882375
:1022600089F4C801B7012FEF3FEF4FE75FE70E9406
:102270007C2818163CF4CE016CE271E00E94DF0E5F
:102280005C01AFC0C601B5012FEF3FEF4FE75FE440
:102290000E94582A181654F0C601B5012FEF3FEFDF
:1022A0004FE75FEC0E947C2887FF04C0CE0160E30B
:1022B00071E0E4CFC601B50120E030E0A9010E9441
:1022C0007C2887FF0AC0CE016DE20E94510F3C01BD
:1022D000D7FAD094D7F8D09402C06624772410E0BF
:1022E00050E040E030E02FE311C0DA01F9016B2F3C
:1022F000742F8F2F922F20E030E040E251E40E94B3
:102300008328562F472F382F292F1F5F181568F362
:10231000C601B501DA01F9012B2F342F4F2F5E2FA3
:102320000E949F27D62EF72E082FC92E0E94F02834
:10233000162FE72E5C010E941C299B01AC016D2D1C
:102340007F2D802F9C2D0E949E276B01F82E092F38
:10235000CE01412F5E2DB5012AE030E00E943210FF
:102360005C01A60CB71C8820D1F1CE0164E371E0BA
:102370000E94DF0EA80EB91E32C06C2D7D2D8F2D50
:10238000902F20E030E040E251E40E94632AD62EF4
:10239000C72E982E792EA601652F742F0E94EB2848
:1023A0007B010027F7FC0095102FCE01B801A70193
:1023B0002AE030E00E949210A80EB91EC801B701B1
:1023C0000E941E299B01AC01D6016B2F7A2F892D0B
:1023D000972D0E949E276B01F82E092F8A94882042
:1023E00061F6C501DF91CF911F910F91FF90EF90A2
:1023F000DF90CF90BF90AF909F908F907F906F9025
:1024000008950E94051108950F931F93CF93DF93B2
:10241000EC010E9405118C01CE010E94640F080F8F
:10242000191FC801DF91CF911F910F910895FC01F1
:10243000808191810E94132C0895CF93DF93EC014A
:1024400088819981009711F00E94132C19821882BB
:102450001D821C821B821A82DF91CF9108950F93F7
:102460001F93CF93DF93EC018B016F5F7F4F8881C8
:1024700099810E94AC2C009731F0998388831B834B
:102480000A8381E001C080E0DF91CF911F910F911D
:102490000895CF93DF93EC0188819981009729F00B
:1024A0008A819B818617970778F4CE010E942F12AC
:1024B000882341F08C819D81009731F4E881F98176
:1024C000108202C080E001C081E0DF91CF910895C9
:1024D000EF92FF920F931F93CF93DF93EC017B0159
:1024E0008A01BA010E944912882321F4CE010E9478
:1024F0001D1207C01D830C8388819981B7010E943A
:10250000E52DCE01DF91CF911F910F91FF90EF90BC
:102510000895CF93DF93FC011182108213821282FF
:102520001582148216826115710559F0EB0109902C
:102530000020E9F7AE0141505040461B570B0E9466
:102540006812DF91CF910895EF92FF92CF93DF93BE
:10255000EC01FB018617970761F0608171816115BD
:10256000710529F0448155810E94681202C00E94C1
:102570001D12CE01DF91CF91FF90EF900895FC01E5
:1025800011821082138212821582148216820E9496
:10259000A41208950F931F938C016115710561F0CA
:1025A000DB010D900020E9F7AD0141505040461B82
:1025B000570B0E94681202C00E941D12C8011F9191
:1025C0000F910895EF92FF920F931F93DF93CF9394
:1025D000CDB7DEB7A1970FB6F894DEBF0FBECDBF63
:1025E0007C01CB01BA01F7011182108213821282A1
:1025F0001582148216828E010F5F1F4FA80130E0F2
:102600000E94982EC701B8010E94CA12A1960FB667
:10261000F894DEBF0FBECDBFCF91DF911F910F9118
:10262000FF90EF900895EF92FF920F931F93DF9327
:10263000CF93CDB7DEB7A2970FB6F894DEBF0FBE2B
:10264000CDBF7C01CB01BA01F70111821082138248
:1026500012821582148216828E010F5F1F4FA8010D
:1026600030E00E944F2EC701B8010E94CA12A29604
:102670000FB6F894DEBF0FBECDBFCF91DF911F9193
:102680000F91FF90EF900895EF92FF920F931F9399
:10269000DF93CF93CDB7DEB761970FB6F894DEBF67
:1026A0000FBECDBF7C01CB01F701118210821382D6
:1026B00012821582148216828E010F5F1F4FB8019D
:1026C00050E00E94BD2EC701B8010E94CA12619657
:1026D0000FB6F894DEBF0FBECDBFCF91DF911F9133
:1026E0000F91FF90EF900895EF92FF920F931F9339
:1026F000DF93CF93CDB7DEB762970FB6F894DEBF06
:102700000FBECDBF7C01CB01F70111821082138275
:1027100012821582148216828E010F5F1F4FB8013C
:1027200050E00E942E2EC701B8010E94CA12629684
:102730000FB6F894DEBF0FBECDBFCF91DF911F91D2
:102740000F91FF90EF900895EF92FF920F931F93D8
:10275000DF93CF93CDB7DEB729970FB6F894DEBFDE
:102760000FBECDBF7C01862FF7011182108213822C
:10277000128215821482168290E08E010F5F1F4F25
:10278000B80150E00E94BD2EC701B8010E94CA12D4
:1027900029960FB6F894DEBF0FBECDBFCF91DF9163
:1027A0001F910F91FF90EF900895DF93CF9300D08A
:1027B000CDB7DEB7FC01118210821382128215821E
:1027C0001482168269831A82BE016F5F7F4F0E9456
:1027D000CA120F900F90CF91DF910895EF92FF9260
:1027E0000F931F93CF93DF93EC017B010C811D812D
:1027F00061157105B9F04115510591F0040F151FD0
:10280000B8010E944912882369F0288139818C819E
:102810009D81820F931FB7010E94E52D1D830C83BC
:1028200081E001C080E0DF91CF911F910F91FF9077
:10283000EF900895FB0160817181448155810E9470
:10284000EE1308956115710561F0DB010D90002014
:10285000E9F7AD0141505040461B570B0E94EE1363
:10286000089580E00895DF93CF9300D0CDB7DEB711
:1028700069831A82BE016F5F7F4F41E050E00E9482
:10288000EE130F900F90CF91DF910895EF92FF928A
:102890000F931F93DF93CF9300D000D0CDB7DEB757
:1028A0007C01862F90E08E010F5F1F4FB8014AE038
:1028B00050E00E942E2EF80101900020E9F7AF01B0
:1028C00041505040401B510BC701B8010E94EE130C
:1028D0000F900F900F900F90CF91DF911F910F915C
:1028E000FF90EF900895EF92FF920F931F93DF9365
:1028F000CF93CDB7DEB727970FB6F894DEBF0FBEE4
:10290000CDBF7C01CB018E010F5F1F4FB8014AE0A4
:1029100050E00E942E2EF80101900020E9F7AF014F
:1029200041505040401B510BC701B8010E94EE13AB
:1029300027960FB6F894DEBF0FBECDBFCF91DF91C3
:102940001F910F91FF90EF900895EF92FF920F93D8
:102950001F93DF93CF9300D000D000D0CDB7DEB768
:102960007C01CB018E010F5F1F4FB8014AE050E0A0
:102970000E94BD2EF80101900020E9F7AF014150FF
:102980005040401B510BC701B8010E94EE13269620
:102990000FB6F894DEBF0FBECDBFCF91DF911F9170
:1029A0000F91FF90EF900895EF92FF920F931F9376
:1029B000DF93CF93CDB7DEB72C970FB6F894DEBF79
:1029C0000FBECDBF7C01CB01BA018E010F5F1F4F3F
:1029D000A8012AE030E00E944F2EF801019000206B
:1029E000E9F7AF0141505040401B510BC701B801FE
:1029F0000E94EE132C960FB6F894DEBF0FBECDBF2B
:102A0000CF91DF911F910F91FF90EF900895EF927A
:102A1000FF920F931F93DF93CF93CDB7DEB72B9722
:102A20000FB6F894DEBF0FBECDBF7C01CB01BA015B
:102A30008E010F5F1F4FA8012AE030E00E94982E00
:102A4000F80101900020E9F7AF0141505040401BD0
:102A5000510BC701B8010E94EE132B960FB6F894E4
:102A6000DEBF0FBECDBFCF91DF911F910F91FF90C1
:102A7000EF9008950F931F938C01FB01608171818A
:102A8000448155810E94EE13882319F4C8010E94E5
:102A90001D12C8011F910F9108950F931F938C0170
:102AA0006115710569F0DB010D900020E9F7AD01BA
:102AB00041505040461B570B0E94EE13882319F4D7
:102AC000C8010E941D12C8011F910F9108950F9314
:102AD0001F938C010E943314882319F4C8010E94AB
:102AE0001D12C8011F910F9108950F931F938C0120
:102AF0000E944614882319F4C8010E941D12C801BF
:102B00001F910F9108950F931F938C010E947314CE
:102B1000882319F4C8010E941D12C8011F910F914A
:102B200008950F931F938C010E94A514882319F414
:102B3000C8010E941D12C8011F910F9108950F93A3
:102B40001F938C010E94D414882319F4C8010E9499
:102B50001D12C8011F910F9108950F931F938C01AF
:102B60000E940715882319F4C8010E941D12C8018C
:102B70001F910F910895CF93DF93FC01DB018081BA
:102B80009181009731F06D917C91119761157105DC
:102B9000E9F4CD91DC911197209769F014962D916D
:102BA0003C9115972115310531F0288130E03095A1
:102BB00021953F4F12C0009771F024813581211576
:102BC000310549F0FC01208130E007C00E94DC2D76
:102BD000282F392F02C020E030E0C901DF91CF91CA
:102BE0000895FC0144815581FB0124813581421700
:102BF000530729F40E94BB1521E0009709F020E05B
:102C0000822F0895FC0184819581009741F461151C
:102C1000710519F081E0FB0109C081E00895019080
:102C2000F081E02D6115710531F481E090819923E7
:102C300059F080E00895CF010E94DC2D9C0181E0D5
:102C40002115310509F080E008950E94BB15892FF8
:102C5000881F8827881F08950E94BB1521E0181639
:102C600019060CF020E0822F08950E94BB1521E088
:102C7000181619060CF420E0822F08950E94BB1547
:102C8000892F8095881F8827881F0895EF92FF92CB
:102C90000F931F93CF93DF93FC01DB0186179707F8
:102CA00029F18481958114962D913C911597821775
:102CB0009307F1F40097D1F000811181CD91DC915F
:102CC00011970FC0992787FD90950E94A62D7C0132
:102CD0008991992787FD90950E94A62DE816F906FF
:102CE00039F4F80181918F01882361F781E001C0F7
:102CF00080E0DF91CF911F910F91FF90EF900895A9
:102D0000FC01DB01CA0114964D915C911597248159
:102D10003581241B350B28173907A0F0208131811C
:102D20002115310579F06D917C911197611571052F
:102D300059F0820F931F0E94EC2D9C0181E0211518
:102D4000310519F080E0089580E00895FC01448188
:102D50005581FB01248135814217530728F040E05B
:102D600050E00E948016089580E00895FC01DB0188
:102D70008481958114964D915C91159784179507E0
:102D8000B0F0208131812115310589F06D917C9160
:102D900011976115710569F0841B950B820F931FC4
:102DA0000E94DC2D9C0181E02115310519F080E0A5
:102DB000089580E00895FC01848195816817790762
:102DC00030F40190F081E02DE60FF71F4083089565
:102DD000FC01848195816817790720F480819181B5
:102DE000009729F41092C30363EC73E002C0680FEC
:102DF000791FCB010895FC018481958168177907BB
:102E000048F480819181009739F0680F791FFB01A8
:102E10008081089580E0089580E008950E94FB1667
:102E200008950F931F93CF93DF93FC018B014115FE
:102E30005105F1F061157105D9F0C481D5812C17C8
:102E40003D0718F0FB01108213C041505040C21BD7
:102E5000D30B4C175D0708F4EA0160817181620FA2
:102E6000731FC801AE010E94FA2DC00FD11F188236
:102E7000DF91CF911F910F910895CF93DF93FC01C4
:102E8000CA01248135814217530778F4C081D1816A
:102E9000772767FD70958C0F9D1F0E94D12D00979D
:102EA00021F09C012C1B3D0B02C02FEF3FEFC9010D
:102EB000DF91CF91089540E050E00E943D170895C2
:102EC000CF93DF93FC01CA01248135814217530758
:102ED00078F4C081D181FB01608171818C0F9D1FCD
:102EE0000E94142E009721F09C012C1B3D0B02C068
:102EF0002FEF3FEFC901DF91CF91089540E050E0FF
:102F00000E9460170895DF92EF92FF920F931F9334
:102F1000CF93DF93EC018C819D8148175907F8F41A
:102F20007A010894E11CF11CE881F981EE0DFF1D86
:102F3000D080108208811981772767FD7095C801BC
:102F40000E94092E0E0D1F1DF801D082009739F046
:102F500028813981AC01421B530B9A0102C02FEF2B
:102F60003FEFC901DF91CF911F910F91FF90EF903B
:102F7000DF900895FC0144815581415050400E94EA
:102F800083170895AF92BF92CF92DF92EF92FF9294
:102F90000F931F93CF93DF93FC016B018A01DB0139
:102FA00014962D913C9115972115310551F184818D
:102FB0009581009731F18217930718F14817590747
:102FC00018F08C0101501040E080F180C701CFEF74
:102FD000DFEF5701A00EB11E10C0F60160817181B4
:102FE0000E94142E009779F09C012E193F090217B8
:102FF000130708F49E010196E901A816B90668F7BF
:1030000002C0CFEFDFEFCE01DF91CF911F910F9183
:10301000FF90EF90DF90CF90BF90AF900895FC01AC
:1030200044815581FB0124813581421B530B0E9451
:10303000C2170895AF92BF92CF92DF92EF92FF92A4
:103040000F931F93CF93DF93F82EE92E6B018A0124
:10305000E9012417350748F4342F212F8E01C901C7
:10306000A92EE5015E01B22EE5018F2D9E2D66E3AE
:1030700071E00E948912D60114968D919C9115974A
:1030800080179107D8F08C179D0708F4EC01D60142
:10309000ED91FC911197EC0FFD1FB08010826D91A6
:1030A0007C91600F711F8F2D9E2D0E94CA12D60138
:1030B000ED91FC911197EC0FFD1FB0828F2D9E2D8D
:1030C000DF91CF911F910F91FF90EF90DF90CF9004
:1030D000BF90AF900895CF93DF93EC01FB01248163
:1030E00035810E941A18CE01DF91CF910895DC013D
:1030F000ED91FC911197309729F40895861709F402
:103100004083319680818823C9F708952F923F929A
:103110004F925F926F927F928F929F92AF92BF92E7
:10312000CF92DF92EF92FF920F931F93CF93DF9393
:103130007C012B016A01DC0114966D907C9015973F
:103140006114710409F4D9C0FB0184809580811455
:10315000910409F4D2C0DA011496AD90BC90159791
:10316000A818B908FC0100811181A114B104F1F47F
:1031700013C0D6016C9111967C91119714964D91C4
:103180005C911597CE010E94B62DD60114960D9133
:103190001C9115970C0F1D1FF20160817181C801F0
:1031A0000E94142EEC01009721F7A7C0B7FC02C0C3
:1031B000E30142C048012DC0E301C01BD10BC40193
:1031C000B801AE010E94B62DC80DD91DD6016C9173
:1031D00011967C91119714964D915C911597CE01A3
:1031E0000E94B62DD60114968D909C9015978C0E4A
:1031F0009D1EF20104811581060D171DD70114963D
:103200008D919C9115978A0D9B1D15969C938E937D
:103210001497F20160817181C8010E94142E3C0153
:10322000009751F6C401B8010E94E52D66C08C01DB
:10323000080D191DCA0DDB1DD2016D917C91C801CD
:103240000E94142E009799F7C615D70509F455C0AA
:10325000F701828193818C179D0708F045C0C70153
:10326000BE010E942F12882309F447C03DC0C70148
:10327000B201A9010E94C217EC0197FD3EC0D7011F
:103280006D917C911197F201848195818C0F9D1F26
:10329000680F791F14964D915C911597481B590B37
:1032A000CB018A0D9B1D0E94BF2DD70114968D91D5
:1032B0009C9115978A0D9B1D15969C938E93149740
:1032C000ED91FC911197E80FF91F10822D913C911F
:1032D0002C0F3D1FF6016081718144815581C90128
:1032E0000E94B62D9E0105C0D70114962D913C91E8
:1032F00015972150304037FFBACFDF91CF911F9102
:103300000F91FF90EF90DF90CF90BF90AF909F9084
:103310008F907F906F905F904F903F902F90089587
:10332000CF93DF93FC01C081D181209739F409C08C
:10333000992787FD90950E94A62D899388818823DF
:10334000B9F7DF91CF910895CF93DF93FC01C0814E
:10335000D181209739F409C0992787FD90950E9463
:10336000AE2D899388818823B9F7DF91CF91089595
:10337000AF92BF92CF92DF92EF92FF920F931F9383
:10338000CF93DF936C01DC01ED90FC901197E11479
:10339000F10409F443C01496AD90BC901597A114A4
:1033A000B104E1F18701E80188810F5F1F4F992780
:1033B00087FD90950E949E2D0097A9F785010150E9
:1033C00010400E0D1F1DF8018081992787FD9095F3
:1033D0000E949E2D009731F00C171D0718F0015028
:1033E0001040F1CF0F5F1F4F0C1B1D0BD601159620
:1033F0001C930E931497EC16FD0628F4C701BE012A
:10340000A8010E94B62DD601ED91FC91119714965A
:103410008D919C911597E80FF91F1082DF91CF9144
:103420001F910F91FF90EF90DF90CF90BF90AF90E2
:103430000895FC0180819181009729F00E94772DE9
:103440009B01AC0103C020E030E0A901B901CA0131
:103450000895CF93DF930E94FB1A0E941203C0E9E4
:10346000DCE00E94210B2097E1F30E94900CF9CF41
:103470000E94792B08950E94132C089521E030E0DA
:10348000FC018081882311F020E030E0C90108951B
:1034900021E0FC0120830895089508951F920F9262
:1034A0000FB60F9211242F933F938F939F93AF9357
:1034B000BF938091C8039091C903A091CA03B091B2
:1034C000CB033091CC030196A11DB11D232F2D5F9D
:1034D0002D3720F02D570196A11DB11D2093CC034F
:1034E0008093C8039093C903A093CA03B093CB03FE
:1034F0008091C4039091C503A091C603B091C70306
:103500000196A11DB11D8093C4039093C503A093A0
:10351000C603B093C703BF91AF919F918F913F9125
:103520002F910F900FBE0F901F9018958FB7F894A2
:103530002091C8033091C9034091CA035091CB0335
:103540008FBFB901CA0108959FB7F8942091C403B1
:103550003091C5034091C6035091C70386B5A89B1F
:1035600006C08F3F21F02F5F3F4F4F4F5F4F9FBFF0
:10357000542F432F322F2227280F311D411D511D5B
:1035800082E0220F331F441F551F8A95D1F7B901DE
:10359000CA010895EF92FF920F931F93CF93DF9389
:1035A0007B018C010E94A41AEB010FC00E94A41A97
:1035B0006C1B7D0B83E0683E780738F00894E108C7
:1035C000F10801091109C851DC4FE114F1040105AA
:1035D000110561F7DF91CF911F910F91FF90EF904F
:1035E0000895019739F0880F991F880F991F029746
:1035F0000197F1F70895789484B5826084BD84B50D
:10360000816084BD85B5826085BD85B5816085BDDD
:10361000EEE6F0E0808181608083E1E8F0E01082F6
:10362000808182608083808181608083E0E8F0E037
:10363000808181608083E1EBF0E080818460808321
:10364000E0EBF0E0808181608083EAE7F0E0808158
:1036500084608083808182608083808181608083B8
:103660008081806880831092C1000895833071F05A
:10367000843028F48130A1F0823021F514C08630E6
:10368000B1F08730D1F08430E9F404C0809180003B
:103690008F7703C0809180008F7D80938000089594
:1036A00084B58F7702C084B58F7D84BD08958091E5
:1036B000B0008F778093B00008958091B0008F7D27
:1036C0008093B0000895EF92FF92CF93DF9390E044
:1036D000FC01EF5DFE4F4491835F9E4FFC0184919E
:1036E000882389F190E0880F991FFC01E151FF4F79
:1036F00025913491D90187509F4FFC012591349138
:10370000E22EE7017E01F32EE701662349F49FB71D
:10371000F8948C91409584238C93888184230BC0EA
:10372000623059F49FB7F8948C91242F209582230E
:103730008C938881842B888305C09FB7F8948C91E3
:10374000842B8C939FBFDF91CF91FF90EF900895D2
:103750000F931F93DF93CF930F92CDB7DEB7282F30
:1037600030E0F901EB5CFE4F8491F901EF5DFE4F13
:103770001491235F3E4FF90104910023D9F088236F
:1037800021F069830E94361B6981E02FF0E0EE0F83
:10379000FF1FE750FF4F85919491DC019FB7F8948C
:1037A000662321F48C911095812302C08C91812B8A
:1037B0008C939FBF0F90CF91DF911F910F91089530
:1037C0000F931F93282F30E0F901EB5CFE4F84919B
:1037D000F901EF5DFE4F0491235F3E4FF901149113
:1037E000112391F0882311F00E94361BE12FF0E0A5
:1037F000EE0FFF1FED5FFE4F85919491DC018C91E0
:10380000802321E030E011F420E030E0C9011F9175
:103810000F9108952091EE0330E08091ED03281B75
:103820003109C90108958091ED039091EE03891744
:1038300050F4E82FF0E0E353FC4F208130E08F5F3D
:103840008093ED0302C02FEF3FEFC9010895E0918F
:10385000ED038091EE03E81730F4F0E0E353FC4F02
:10386000208130E002C02FEF3FEFC9010895089595
:10387000CF93DF939C01CB01E0911504F0911604E6
:103880003097D9F05091ED034091EE035417A8F012
:1038900060E009C0DA01A353BC4F420F531FEA0195
:1038A00048814C936F5F462F50E04817590794F3B7
:1038B0001092ED038093EE030995DF91CF91089567
:1038C000E0911304F0911404309729F01092100441
:1038D0001092110409950895CF92DF92EF92FF9212
:1038E0000F931F93CF93DF936C01CB01EA012091DB
:1038F00012042223B1F0E62EF92E00E010E00DC0F4
:10390000D7016D917D01D601ED91FC910190F0817F
:10391000E02DC60109950F5F1F4F0C171D0780F39F
:1039200003C0642F0E940F1ECE01DF91CF911F9123
:103930000F91FF90EF90DF90CF900895DF93CF939A
:103940000F92CDB7DEB76983209112042223D1F004
:1039500020911104203240F021E030E0FC0133835B
:10396000228320E030E015C080911004E82FF0E0C1
:10397000E051FC4F998190838F5F80931004809376
:10398000110405C0CE01019661E00E940F1E21E0E6
:1039900030E0C9010F90CF91DF910895FC011382AF
:1039A000128228EE33E040E050E0248335834683E2
:1039B000578387EC91E09183808308951092ED0303
:1039C0001092EE0310921004109211040E945D1DDB
:1039D0000895CF93DF93EC01862F0E94731D80E63C
:1039E0009CE10E942E1E88E39CE10E94291ECE01CC
:1039F0000E94DE1CDF91CF9108950E94E91C08957A
:103A0000862F413208F040E26DEC73E00E94761D93
:103A10001092ED038093EE03089521E00E94001DB3
:103A2000089521E00E94001D08950E94001D089540
:103A300081E0809312046093EF03109210041092BF
:103A4000110408950E94181D08950F93062F809168
:103A5000EF0360EF73E04091110421E00E94BD1D6F
:103A60001092100410921104109212040F910895F4
:103A700061E00E94251D089570931604609315045B
:103A800008957093140460931304089510921A0417
:103A90001092190488EE93E0A0E0B0E080931B043C
:103AA00090931C04A0931D04B0931E0487EC91E036
:103AB000909318048093170408951092480481E0AD
:103AC000809346041092470482E161E00E94A81BA3
:103AD00083E161E00E94A81B089809988DEF80B9E6
:103AE00085E486BF0895880F82B90895413208F0B1
:103AF00041C0909148049923E1F791E090934804E4
:103B0000209346042FEF2093490410922404242F7D
:103B10002150209325049093230490912304880F2F
:103B2000892B8093230480914704813039F41092CB
:103B300047048091230483B985EC01C085EE86BFDC
:103B4000809148048130E1F380912404841710F4BB
:103B500040912404E6E2F4E0262F372FD901242FE8
:103B600030E02E0F3F1F02C081918D93E217F307C3
:103B7000D9F701C040E0842F08950F93413208F037
:103B800045C0909148049923E1F792E0909348044E
:103B9000009346049FEF90934904109224044093AD
:103BA0002504DB01E6E2F4E050E04E0F5F1F02C0A7
:103BB0009D919193E417F507D9F710922304909102
:103BC0002304880F892B809323048091470481303C
:103BD00039F4109247048091230483B985EC01C025
:103BE00085EE86BF222321F0809148048230E1F3E4
:103BF000809149048F3F61F080914904803251F0F7
:103C000080914904803341F483E007C081E005C01E
:103C100080E003C082E001C084E00F91089561322A
:103C2000A0F420914804243091F460936E04DC01E8
:103C3000E1E7F4E070E06E0F7F1F02C08D91819389
:103C4000E617F707D9F780E0089581E0089582E04C
:103C5000089590936C0480936B040895909370047E
:103C600080936F040895882311F085EC01C085E8E6
:103C700086BF089585ED86BF06B604FCFDCF109281
:103C80004804089585EC86BF1092480408951F9259
:103C90000F920FB60F9211242F933F934F935F9380
:103CA0006F937F938F939F93AF93BF93EF93FF9304
:103CB00081B190E0887F90708036910509F4C7C08B
:103CC00081369105E4F58832910509F47DC0893289
:103CD0009105C4F48031910509F472C081319105D8
:103CE00044F4009709F416C18830910509F016C113
:103CF00067C08831910509F467C08032910509F0E9
:103D00000DC175C08034910509F486C081349105D8
:103D10004CF48033910509F46CC08833910509F0A7
:103D2000FDC06BC08035910509F46BC088359105E5
:103D300009F477C08834910509F0F0C0EDC08839E6
:103D4000910509F4DDC089399105ECF488379105B6
:103D500009F47DC0893791054CF48836910509F442
:103D600076C08037910509F0D9C071C088389105B7
:103D700009F4C6C08039910509F46FC080389105F7
:103D800009F0CCC06AC0803B910509F492C0813B28
:103D900091054CF4803A910509F470C0883A910578
:103DA00009F0BCC086C0803C910509F4ADC0883CD8
:103DB000910509F4A9C0883B910509F0AFC08EC0F8
:103DC0008091230483B911C090912404809125042B
:103DD000981790F580912404E82FF0E0EA5DFB4FFE
:103DE000908193B98F5F8093240481E08AC080E240
:103DF00001C080E3809349048FC088E38093490425
:103E000055C08091240493B1E82FF0E0EA5DFB4FA8
:103E100090838F5F809324049091240480912504E3
:103E20006CC08091240493B1E82FF0E0EA5DFB4F71
:103E300090838F5F8093240480914604882309F047
:103E40006BC081E08093470484EA86BF60C083E052
:103E50008093480410924A04C8CF80914A0480326B
:103E600008F04EC080914A0493B1E82FF0E0E55B82
:103E7000FB4F90838F5F80934A04B7CF80914A04B1
:103E8000803230F4E0914A04F0E0E55BFB4F1082B1
:103E90000E943A1E60914A04E0916B04F0916C0418
:103EA0008BE494E070E0099510924A040E94421E4F
:103EB00035C084E08093480410926D0410926E0423
:103EC000E0916F04F0917004099580916E0488234D
:103ED00029F481E080936E041092710480916D0446
:103EE000E82FF0E0EF58FB4F908193B98F5F8093FC
:103EF0006D0490916D0480916E04981708F475CF4D
:103F000080E00E94331E0AC081E00E94331E10929E
:103F1000480404C0109249040E943A1EFF91EF9198
:103F2000BF91AF919F918F917F916F915F914F91D1
:103F30003F912F910F900FBE0F901F901895DC01AD
:103F4000ED91FC910190F081E02D09950895EF929B
:103F5000FF921F93DF93CF930F92CDB7DEB7FC0193
:103F6000162F87E1E82E84E0F82EC7016585498386
:103F70000E94181DC701612F0E949E1CC701498124
:103F8000642F0E949E1CC7010E94381D0F90CF9184
:103F9000DF911F91FF90EF90089560E24FE00E9443
:103FA000A71F0895FF920F931F93CF93DF938C0168
:103FB000F62EC7E1D4E0CE01F80165850E94181DF8
:103FC000CE016F2D0E949E1CCE010E94381DCE0195
:103FD000F801658541E00E940D1DCE010E94131C71
:103FE000082FCE010E94381D802FDF91CF911F91A5
:103FF0000F91FF900895CF92DF92EF92FF920F936F
:104000001F93CF93DF93EC0187E194E06D850E94CD
:10401000181D87E194E068EA70E00E949F1F87E125
:1040200094E00E94381D87E194E06D8546E00E948F
:104030000D1D87E194E00E940A1C86309105CCF3A7
:1040400087E194E00E94131CD82E87E194E00E943F
:10405000131CC82E87E194E00E94131CF82E87E100
:1040600094E00E94131CE82E87E194E00E94131C48
:10407000182F87E194E00E94131C082F3C2D20E0AC
:104080006D2D70E0622B732B882777FD8095982F1C
:104090000E941E29688379838A839B839E2D80E0FA
:1040A0006F2D70E0682B792B882777FD8095982FEE
:1040B0000E941E296C837D838E839F83902F80E0D6
:1040C000612F70E0682B792B882777FD8095982FDA
:1040D0000E941E29688779878A879B87DF91CF9105
:1040E0001F910F91FF90EF90DF90CF9008952F9246
:1040F0003F924F925F926F927F928F929F92AF9278
:10410000BF92CF92DF92EF92FF920F931F93DF93B4
:10411000CF9300D000D000D0CDB7DEB78C017E8326
:104120006D831A01DB0118964D905D906D907C9027
:104130001B97FC01C084D184E284F384C301B201E3
:1041400024813581468157810E94632A4B015C019D
:10415000C701B601AD81BE8114962D913D914D915F
:104160005C9117970E94632A9B01AC01C501B401C1
:104170000E949E27F1016083718382839383AD81C6
:10418000BE818D919D910D90BC91A02D89839A83C4
:10419000AB83BC83F80180809180A280B380C7018B
:1041A000B60129813A814B815C810E94632A6B01AF
:1041B0007C01C501B401A30192010E94632A9B0105
:1041C000AC01C701B6010E949E27D10114966D93E0
:1041D0007D938D939C931797C501B401ED81FE816A
:1041E00024813581468157810E94632A6B017C01BD
:1041F00069817A818B819C81D80114962D913D91A2
:104200004D915C9117970E94632A9B01AC01C701F5
:10421000B6010E949E27F10160877187828793878C
:1042200026960FB6F894DEBF0FBECDBFCF91DF91BB
:104230001F910F91FF90EF90DF90CF90BF90AF90C4
:104240009F908F907F906F905F904F903F902F90B6
:104250000895CF92DF92EF92FF920F931F93CF9327
:10426000DF93EC018B01688179818A819B81F80160
:1042700020813181428153810E94632A6B017C013C
:104280006C817D818E819F81F801248135814681F9
:1042900057810E94632A9B01AC01C701B6010E94AD
:1042A0009F276B017C01688579858A859B85F8014C
:1042B00020853185428553850E94632A9B01AC018C
:1042C000C701B6010E949F27DF91CF911F910F91E7
:1042D000FF90EF90DF90CF900895EF92FF920F93B1
:1042E0001F93CF93DF93EC01BE010E9429210E940E
:1042F000D02A7B018C01688179818A819B81A80108
:1043000097010E948328688379838A839B836C81C9
:104310007D818E819F81A80197010E9483286C83F3
:104320007D838E839F83688579858A859B85A80197
:1043300097010E948328688779878A879B87DF9106
:10434000CF911F910F91FF90EF900895CF93DF933E
:10435000EC0188E68D87CE016FE00E94D21F833D7D
:10436000D9F089E68D87CE016FE00E94D21F833D90
:1043700099F08AE68D87CE016FE00E94D21F843DBE
:1043800059F08BE68D87CE016FE00E94D21F91E03D
:10439000843D19F090E001C091E0892FDF91CF9129
:1043A0000895FC016487613019F06230B9F408C0E7
:1043B000442311F428E60BC0413069F429E607C014
:1043C000442311F42AE603C0413029F42BE6FC0112
:1043D000258781E008950E94A62108950E94A621C4
:1043E0000895DC01ED91FC910190F081E02D09959B
:1043F0000895FC0180E090E0A7E0B4E4808F918F05
:10440000A28FB38F80E090E0AAEFB3E4848F958F02
:10441000A68FB78F80E090E0A4E3B3E480A391A3DC
:10442000A2A3B3A320E030E042E054EC24A335A3E0
:1044300046A357A320E030E84EE054EC20A731A774
:1044400042A753A720E030E840E454EC24A735A766
:1044500046A757A783E081AB88E182AB14AA13AAD1
:1044600015AA0895FC0185A90895FC0174AB63ABFE
:104470000895FC0183A994A90895CF92DF92FF9239
:104480000F931F93DF93CF930F92CDB7DEB76C01DD
:10449000F62E07E114E0C801F60162A949830E94E3
:1044A000181DC8016F2D0E949E1CC8014981642FF0
:1044B0000E949E1CC8010E94381DF60180AB0F901F
:1044C000CF91DF911F910F91FF90DF90CF900895D2
:1044D000FF920F931F93CF93DF938C01F62EC7E1CA
:1044E000D4E0CE01F80162A90E94181DCE016F2D03
:1044F0000E949E1CCE010E94381DF80180ABCE01A7
:1045000062A941E00E940D1DCE010E94131C082FDC
:10451000CE010E94381D802FDF91CF911F910F9106
:10452000FF900895CF92DF92FF920F931F93DF9336
:10453000CF930F92CDB7DEB78C01F62E87E1C82E50
:1045400084E0D82EC6016EE170E049830E94221DEE
:10455000C6016F2D0E949E1CC6014981642F0E94D6
:104560009E1CC6010E94381DF80180AB0F90CF91B0
:10457000DF911F910F91FF90DF90CF900895CF931F
:10458000DF93EC0160E247E20E943D22CE0162E04F
:1045900040E00E949222DF91CF9108950F931F93E4
:1045A000CF93DF938C01EB0177FF34C08FEF6D3F2A
:1045B0007807D9F0EFEF6E3F7E072CF4FFEF6C3FEA
:1045C0007F0741F517C08FEF6E3F780749F0EFEF97
:1045D0006F3F7E07F9F4F80181A9882381F415C0A3
:1045E000F80181A9882371F413C0F80181A98823F7
:1045F00061F405C0F80181A9882351F403C0C7E024
:10460000D0E008C0C8E0D0E005C0C5E0D0E002C0FE
:10461000C6E0D0E087E194E06EE170E00E94221DE8
:1046200087E194E0BE010E949F1F87E194E00E9411
:10463000381DF80180AB87E194E06EE170E041E065
:1046400050E00E94111D87E194E00E94131C082F86
:1046500087E194E00E94381D802FDF91CF911F9158
:104660000F9108951F93CF93DF93162FC7E1D4E0E6
:10467000CE016EE170E00E94221DCE0161E070E08B
:104680000E949F1FCE01612F0E949E1CCE010E949E
:10469000381DDF91CF911F910895CF92DF92EF9255
:1046A000FF920F931F93CF93DF93EC0187E194E088
:1046B0006AA90E94181D87E194E068EA70E00E94F0
:1046C0009F1F87E194E00E94381D88AB87E194E04A
:1046D0006AA946E00E940D1D0E94961A8B011DAA30
:1046E00010C08BA99CA9009761F00E94961A601BCC
:1046F000710B8BA99CA98617970718F481E08DABE5
:1047000064C087E194E00E940A1C863091054CF356
:1047100087E194E00E94131CD82E87E194E00E9468
:10472000131CC82E87E194E00E94131CF82E87E129
:1047300094E00E94131CE82E87E194E00E94131C71
:10474000082F87E194E00E94131C182F3C2D20E0D5
:104750006D2D70E0622B732B34E0759567953A955B
:10476000E1F7882777FD8095982F0E941E2968839E
:1047700079838A839B839E2D80E06F2D70E0682B68
:10478000792B24E0759567952A95E1F7882777FDC1
:104790008095982F0E941E296C837D838E839F8332
:1047A000912F80E0602F70E0682B792B94E0759555
:1047B00067959A95E1F7882777FD8095982F0E9455
:1047C0001E29688779878A879B87DF91CF911F9100
:1047D0000F91FF90EF90DF90CF900895CF92DF92EE
:1047E000EF92FF920F931F93CF93DF93EC0187E13A
:1047F00094E06EE170E00E94221D87E194E063E0A6
:1048000070E00E949F1F87E194E00E94381D88ABF2
:1048100087E194E06EE170E046E050E00E94111DF7
:104820000E94961A8B011DAA10C08BA99CA9009703
:1048300061F00E94961A601B710B8BA99CA98617C8
:10484000970718F481E08DAB6DC087E194E00E947A
:104850000A1C863091054CF387E194E00E94131CFA
:10486000C82E87E194E00E94131CD82E89A98823C2
:10487000A9F487E194E00E94131CE82E87E194E0FC
:104880000E94131CF82E87E194E00E94131C182F3D
:1048900087E194E00E94131C082F14C087E194E084
:1048A0000E94131C182F87E194E00E94131C082F0C
:1048B00087E194E00E94131CE82E87E194E00E94B7
:1048C000131CF82E3C2D20E06D2D70E0622B732B15
:1048D000882777FD8095982F0E941E296C877D87F9
:1048E0008E879F879E2D80E06F2D70E0682B792B3F
:1048F000882777FD8095982F0E941E29688B798BD9
:104900008A8B9B8B912F80E0602F70E0682B792B36
:10491000882777FD8095982F0E941E296C8B7D8BB0
:104920008E8B9F8BDF91CF911F910F91FF90EF9016
:10493000DF90CF900895CF93DF93EC010E944D2339
:10494000CE010E94EE23DF91CF9108952F923F92E6
:104950004F925F926F927F928F929F92AF92BF928F
:10496000CF92DF92EF92FF920F931F93DF93CF933B
:1049700000D000D000D0CDB7DEB78C017E836D8330
:104980001A01DB0118964D905D906D907C901B97FD
:10499000FC01C084D184E284F384C301B201248188
:1049A0003581468157810E94632A4B015C01C70112
:1049B000B601AD81BE8114962D913D914D915C91D2
:1049C00017970E94632A9B01AC01C501B4010E94A4
:1049D0009E27F1016083718382839383AD81BE81C1
:1049E0008D919D910D90BC91A02D89839A83AB836D
:1049F000BC83F80180809180A280B380C701B6019A
:104A000029813A814B815C810E94632A6B017C0180
:104A1000C501B401A30192010E94632A9B01AC016C
:104A2000C701B6010E949E27D10114966D937D9314
:104A30008D939C931797C501B401ED81FE8124816C
:104A40003581468157810E94632A6B017C0169810F
:104A50007A818B819C81D80114962D913D914D9145
:104A60005C9117970E94632A9B01AC01C701B601B4
:104A70000E949E27F101608771878287938726961F
:104A80000FB6F894DEBF0FBECDBFCF91DF911F915F
:104A90000F91FF90EF90DF90CF90BF90AF909F90DD
:104AA0008F907F906F905F904F903F902F900895E0
:104AB000CF92DF92EF92FF920F931F93CF93DF93EA
:104AC000EC018B01688179818A819B81F8012081C9
:104AD0003181428153810E94632A6B017C016C8188
:104AE0007D818E819F81F8012481358146815781A6
:104AF0000E94632A9B01AC01C701B6010E949F2757
:104B00006B017C01688579858A859B85F801208504
:104B10003185428553850E94632A9B01AC01C70100
:104B2000B6010E949F27DF91CF911F910F91FF90B7
:104B3000EF90DF90CF900895EF92FF920F931F9325
:104B4000CF93DF93EC01BE010E9458250E94D02A2A
:104B50007B018C01688179818A819B81A801970101
:104B60000E948328688379838A839B836C817D81FB
:104B70008E819F81A80197010E9483286C837D8389
:104B80008E839F83688579858A859B85A801970197
:104B90000E948328688779878A879B87DF91CF91D6
:104BA0001F910F91FF90EF9008956F927F928F92D7
:104BB0009F92AF92BF92CF92DF92EF92FF920F93AC
:104BC0001F93DF93CF93CDB7DEB7E0970FB6F8947E
:104BD000DEBF0FBECDBF5C01CDA2DEA2EFA2F8A664
:104BE00009A71AA72BA73CA74DA75EA76FA778AB6D
:104BF000FC01E4A0F5A006A117A164857585868552
:104C00009785A80197010E949E273B014C01F50161
:104C1000608D718D828D938DA80197010E949E27D2
:104C20009B01AC01C401B3010E9483289B01AC012C
:104C30000E949F2720E030E040E85FE30E949E272B
:104C4000F5016487758786879787E0A4F1A402A59C
:104C500013A56089718982899389A80197010E94AF
:104C60009E273B014C01F501648D758D868D978DD6
:104C7000A80197010E949E279B01AC01C401B301CA
:104C80000E9483289B01AC010E949F2720E030E016
:104C900040E85FE30E949E27F501608B718B828B59
:104CA000938BE4A4F5A406A517A564897589868964
:104CB0009789A80197010E949E273B014C01F501AD
:104CC00060A171A182A193A1A80197010E949E27D2
:104CD0009B01AC01C401B3010E9483289B01AC017C
:104CE0000E949F2720E030E040E85FE30E949E277B
:104CF000F501648B758B868B978BDE0111968CE0AA
:104D000001900D928150E1F77E010894E11CF11CA5
:104D1000C7010E949C258E01035F1F4FC5010C96A1
:104D2000B701A8010E94A624C8010E949C2559E150
:104D3000C52ED12CCC0EDD1EC701B801A6010E94E4
:104D4000A62445E2A42EB12CAC0EBD1EC801B501AF
:104D50000E9458257B018C01C601B5010E9458258F
:104D60009B01AC01C801B7010E94292820E030E076
:104D700044E353E40E94632A2BED3FE049E450E40E
:104D80000E948328A62EC72EE82E092F20E030E0AF
:104D9000A9010E94582A87FD0BC06A2D7C2D8E2DFB
:104DA000902F20E030E040E05FE30E949F270AC0A0
:104DB0006A2D7C2D8E2D902F20E030E040E05FE3C7
:104DC0000E949E270E94EB2877FF02C068597E4F01
:104DD000CB01E0960FB6F894DEBF0FBECDBFCF91EA
:104DE000DF911F910F91FF90EF90DF90CF90BF90D8
:104DF000AF909F908F907F906F900895CF92DF92A9
:104E0000EF92FF920F931F93DF93CF93CDB7DEB74F
:104E10002C970FB6F894DEBF0FBECDBF20E030E078
:104E2000A90129833A834B835C830F2EF0E0EF2E98
:104E3000F0E0FF2EF0E80F2FFFEB1F2FF02DED829B
:104E4000FE820F83188729873A874B875C87CC249B
:104E5000DA80EB80FC8000E01E812F81388540E005
:104E60005A856B857C850E94D5252C960FB6F894C3
:104E7000DEBF0FBECDBFCF91DF911F910F91FF908D
:104E8000EF90DF90CF900895CF93DF93EC0187E10F
:104E900094E068E170E00E94221D87E194E060E206
:104EA00070E00E949F1F87E194E00E94381D88AB4C
:104EB00087E194E068E170E041E050E00E94111D5C
:104EC00087E194E00E940A1C009731F087E194E0AA
:104ED0000E94131C80E001C081E0DF91CF91089512
:104EE000CF93DF93EC0169AB623018F0623071F45C
:104EF0000AC0442331F0413031F00E944427813010
:104F000011F088E101C089E18AAB15C00E944427F5
:104F1000813029F489E18AAB82E089AB0CC088E159
:104F20008AABCE016FE070E00E94CE2291E08C331C
:104F300009F090E099ABDF91CF9108955058BB27CD
:104F4000AA270ED06AC233D230F038D220F031F422
:104F50009F3F11F41EF4F2C10EF4E095E7FBE8C1A7
:104F6000E92F7DD280F3BA1762077307840795078C
:104F700018F071F49EF595C20EF4E0950B2EBA2F41
:104F8000A02D0B01B90190010C01CA01A00111244F
:104F9000FF27591B99F0593F50F4503E68F11A16FB
:104FA000F040A22F232F342F4427585FF3CF46958C
:104FB00037952795A795F0405395C9F77EF41F16AE
:104FC000BA0B620B730B840BBAF09150A1F0FF0F78
:104FD000BB1F661F771F881FC2F70EC0BA0F621F64
:104FE000731F841F48F4879577956795B795F79554
:104FF0009E3F08F0B3CF9395880F08F09927EE0FE6
:105000009795879508959F939F77EEE389379E073D
:1050100020F4E8E6F0E0BAD109C04BD19058A2EAFA
:105020002AED3FE049EC5FE39BDFF7D10F9007FCEF
:1050300090580895BCD158F080E891E009F49EEFB3
:10504000BDD128F040E851E059F45EEF09C076C1C7
:1050500028C2E92FE07803D268F3092E052AC1F3AC
:10506000261737074807590738F00E2E07F8E025AE
:1050700069F0E025E0640AC0EF6307F8009407FADE
:10508000DB01B9019D01DC01CA01AD01EF934AD0FA
:10509000C4D10AD05F91552331F02BED3FE049E4B4
:1050A00050FD49EC4CCF0895DF93DD27B92FBF7732
:1050B00040E85FE31616170648075B0710F4D92F80
:1050C000FBD19F938F937F936F93A8D2ECE7F0E08F
:1050D00038D1A3D12F913F914F915F9100D2DD2321
:1050E00049F09058A2EA2AED3FE049EC5FE3D0781E
:1050F0005D2736DFDF9191C1F7D008F481E0089594
:1051000065D1E3959BC10CD088C158D140F04FD1F7
:1051100030F021F45F3F19F00BC15111C3C10EC132
:105120009ED198F39923C9F35523B1F3951B550BE1
:10513000BB27AA2762177307840738F09F5F5F4F6A
:10514000220F331F441FAA1FA9F333D00E2E3AF0AB
:10515000E0E830D091505040E695001CCAF729D0C5
:10516000FE2F27D0660F771F881FBB1F2617370714
:105170004807AB07B0E809F0BB0B802DBF01FF2744
:1051800093585F4F2AF09E3F510568F0D1C08AC105
:105190005F3FECF3983EDCF3869577956795B7957E
:1051A000F7959F5FC9F7880F911D9695879597F999
:1051B0000895E1E0660F771F881FBB1F6217730712
:1051C0008407BA0720F0621B730B840BBA0BEE1F27
:1051D00088F7E095089504D06894B11163C10895EB
:1051E00046D188F09F5790F0B92F9927B751A0F07A
:1051F000D1F0660F771F881F991F1AF0BA95C9F76B
:1052000012C0B13081F04DD1B1E008954AC1672F8D
:10521000782F8827B85F39F0B93FCCF3869577951A
:105220006795B395D9F73EF4909580957095619503
:105230007F4F8F4F9F4F0895E89409C097FB3EF42E
:1052400090958095709561957F4F8F4F9F4F9923D3
:10525000A9F0F92F96E9BB279395F6958795779551
:105260006795B795F111F8CFFAF4BB0F11F460FF11
:105270001BC06F5F7F4F8F4F9F4F16C0882311F069
:1052800096E911C0772321F09EE8872F762F05C07D
:10529000662371F096E8862F70E060E02AF09A9518
:1052A000660F771F881FDAF7880F9695879597F90D
:1052B0000895DF93CF931F930F938B01EC01E9EADD
:1052C000F0E03FD0AAD09801AE018B01EC0160E084
:1052D00070E080E89FE332DE63D19801AE010F9168
:1052E0001F91CF91DF91FBC0990F0008550FAA0BBA
:1052F000E0E8FEEF16161706E807F907C0F01216E9
:105300001306E407F50798F0621B730B840B950BEB
:1053100039F40A2661F0232B242B252B21F4089540
:105320000A2609F4A140A6958FEF811D811D0895DD
:1053300097F99F6780E870E060E008959FEF80EC48
:105340000895DF93CF931F930F93FF92EF92DF9215
:105350007B018C01689405C0DA2EEF01C0D0FE01FC
:10536000E894A5912591359145915591AEF3EF01C2
:10537000F7DDFE019701A801DA9479F7DF90EF904D
:10538000FF900F911F91CF91DF9108959F938F937D
:105390007F936F93FF93EF939B01AC0194D0EF91B8
:1053A000FF91CFDF2F913F914F915F918CC00024EF
:1053B0000A941616170618060906089500240A947A
:1053C00012161306140605060895B8CF50D0E8F358
:1053D000E894E0E0BB279F57F0F02AED3FE049EC6E
:1053E00006C0EE0FBB0F661F771F881F28F0B23A6A
:1053F00062077307840728F0B25A620B730B840BA1
:10540000E3959A9572F7803830F49A95BB0F661F32
:10541000771F881FD2F790480AC1092E0394000C09
:1054200011F4882352F0BB0F40F4BF2B11F460FF3E
:1054300004C06F5F7F4F8F4F9F4F0895EF93E0FF42
:1054400006C0A2EA2AED3FE049EC5FEB89DDE5DF2B
:105450000F90039401FC9058E1EDF0E097CF57FDD9
:105460009058440F551F59F05F3F71F04795880FD2
:1054700097FB991F61F09F3F79F087950895121669
:1054800013061406551FF2CF4695F1DF08C0161615
:1054900017061806991FF1CF8695710561050894C6
:1054A0000895E894BB2766277727CB0197F90895DD
:1054B0001BDF08F48FEF08959B01AC0160E070E002
:1054C00080E89FE320CE0BD0A8CF71DF28F076DFF5
:1054D00018F0952309F02CCF31CF1124E3CFBFDF93
:1054E000A0F3959FD1F3950F50E0551F629FF001F7
:1054F000729FBB27F00DB11D639FAA27F00DB11D50
:10550000AA1F649F6627B00DA11D661F829F2227D8
:10551000B00DA11D621F739FB00DA11D621F839F5F
:10552000A00D611D221F749F3327A00D611D231F35
:10553000849F600D211D822F762F6A2F11249F5783
:1055400050408AF0E1F088234AF0EE0FFF1FBB1FA6
:10555000661F771F881F91505040A9F79E3F510545
:1055600070F0E6CE9FCF5F3FECF3983EDCF386957C
:1055700077956795B795F795E7959F5FC1F7FE2BF0
:10558000880F911D9695879597F908959F931EDF33
:105590000F9007FCEE5F52CF11F40EF4CFCE45C052
:1055A00066DFD0F39923D9F3CEF39F57550B87FFCE
:1055B0004AD00024A0E640EA90018058569597957D
:1055C00028F4805C660F771F881F20F026173707A6
:1055D000480730F4621B730B840B202931294A2BB6
:1055E000A69517940794202531254A2758F7660F6A
:1055F000771F881F20F026173707480730F4620B03
:10560000730B840B200D311D411DA09581F7B9014D
:10561000842F9158880F9695879508959B01AC012A
:1056200052CF62DE880B990B08959F3F31F0915065
:1056300020F4879577956795B795880F911D969576
:10564000879597F9089591505040660F771F881FEE
:10565000D2F7089597FB092E07260AD077FD04D0CC
:105660002ED006D000201AF4709561957F4F0895D2
:10567000F6F7909581959F4F0895A1E21A2EAA1BE7
:10568000BB1BFD010DC0AA1FBB1FEE1FFF1FA217F2
:10569000B307E407F50720F0A21BB30BE40BF50BEF
:1056A000661F771F881F991F1A9469F76095709578
:1056B000809590959B01AC01BD01CF010895AA1B77
:1056C000BB1B51E107C0AA1FBB1FA617B70710F0ED
:1056D000A61BB70B881F991F5A95A9F7809590951F
:1056E000BC01CD010895EE0FFF1F0590F491E02D50
:1056F0000994CF93DF938230910510F482E090E01B
:10570000E0919304F091940440E050E020E030E018
:1057100026C06081718168177907E0F06817790702
:1057200081F4828193812115310531F0D9011396DD
:105730009C938E9312972BC0909394048093930420
:1057400026C04115510519F06417750718F4AB010F
:10575000E901DF019F0172816381E72FF62F309706
:10576000C1F64115510501F1481B590B4430510553
:1057700080F412968D919C911397209719F09B833A
:105780008A8304C09093940480939304FD0132961D
:1057900046C0FD01E40FF51F8193919342505040A4
:1057A00011965C934E933BC02091910430919204EA
:1057B0002115310541F42091390130913A0130939E
:1057C00092042093910420913B0130913C012115DA
:1057D000310541F42DB73EB7409137015091380162
:1057E000241B350BE0919104F0919204E217F3072A
:1057F000A0F42E1B3F0B2817390778F0AC014E5F41
:105800005F4F2417350748F04E0F5F1F50939204E7
:10581000409391048193919302C0E0E0F0E0CF01C6
:10582000DF91CF910895CF93DF93009709F491C052
:10583000FC01329713821282609193047091940458
:105840006115710581F420813181280F391F809104
:105850009104909192048217930799F5F093920422
:10586000E093910476C0DB0180E090E002C0CD01BE
:10587000D901AE17BF0748F412962D913C911397AA
:1058800021153105A1F7CD0121C0B383A283EF011A
:10589000499159919E01240F351FA217B30779F43E
:1058A0002D913C911197240F351F2E5F3F4F31836F
:1058B000208312962D913C91139733832283009776
:1058C00029F4F0939404E093930443C0DC0113960D
:1058D000FC93EE9312974D915D91A40FB51FEA17BB
:1058E000FB0769F420813181240F351F2E5F3F4F64
:1058F000EC0139832883228133813B832A83E0E0D2
:10590000F0E002C0FB01BC01DB0112968D919C917D
:1059100013970097B9F79B012E5F3F4F8D919C9194
:105920001197820F931F4091910450919204481750
:10593000590779F4309729F4109294041092930443
:1059400002C013821282225030403093920420937E
:105950009104DF91CF910895A0E0B0E0E2EBFCE28A
:105960000C94EC2E8C01CB010115110529F40E9439
:10597000792B082F192FB5C0D80112979801260F3F
:10598000371F2A173B0708F4AAC0ED90FC90119727
:10599000E616F706D0F045E0E416F10408F4A1C0DD
:1059A000A701445050404617570708F49AC0A70172
:1059B00042505040461B570BF901419351936D9350
:1059C0007C93CF010E94132C8CC05B01AE18BF08E2
:1059D00048018E0C9F1CE0919304F0919404CC2418
:1059E000DD24C0E0D0E041C0E815F90599F56081FB
:1059F0007181AB014E5F5F4F4A155B0558F1AB01FA
:105A00004A195B09CC24DD246894C1F8C40ED51E64
:105A10008280A380E5E0CE16D10448F0F9018282AD
:105A2000A3825183408311969C938E9309C0C70132
:105A30000296860F971F11969C938E93E82DFA2D50
:105A4000209719F0FB83EA834CC0F0939404E09311
:105A5000930447C040815181C416D50608F46A01F9
:105A6000EF0152814381E52FF42F309709F0BCCF2D
:105A7000409191045091920448155905E9F4C816D3
:105A8000D906D0F440913B0150913C01411551059C
:105A900041F44DB75EB76091370170913801461BF4
:105AA000570B24173507D8F43093920420939104B0
:105AB00011969C938E9315C00E94792BC82EE601F7
:105AC0006E01D92EE601209751F08C2DB801A70167
:105AD0000E94B62DC8010E94132C860102C000E06E
